{
    "_format": "hh-sol-artifact-1",
    "contractName": "RobotPunksNFT",
    "sourceName": "contracts/RobotPunksNFT.sol",
    "abi": [
        {
            "inputs": [],
            "stateMutability": "payable",
            "type": "constructor"
        },
        {
            "anonymous": false,
            "inputs": [
                {
                    "indexed": true,
                    "internalType": "address",
                    "name": "owner",
                    "type": "address"
                },
                {
                    "indexed": true,
                    "internalType": "address",
                    "name": "approved",
                    "type": "address"
                },
                {
                    "indexed": true,
                    "internalType": "uint256",
                    "name": "tokenId",
                    "type": "uint256"
                }
            ],
            "name": "Approval",
            "type": "event"
        },
        {
            "anonymous": false,
            "inputs": [
                {
                    "indexed": true,
                    "internalType": "address",
                    "name": "owner",
                    "type": "address"
                },
                {
                    "indexed": true,
                    "internalType": "address",
                    "name": "operator",
                    "type": "address"
                },
                {
                    "indexed": false,
                    "internalType": "bool",
                    "name": "approved",
                    "type": "bool"
                }
            ],
            "name": "ApprovalForAll",
            "type": "event"
        },
        {
            "anonymous": false,
            "inputs": [
                {
                    "indexed": true,
                    "internalType": "address",
                    "name": "previousOwner",
                    "type": "address"
                },
                {
                    "indexed": true,
                    "internalType": "address",
                    "name": "newOwner",
                    "type": "address"
                }
            ],
            "name": "OwnershipTransferred",
            "type": "event"
        },
        {
            "anonymous": false,
            "inputs": [
                {
                    "indexed": false,
                    "internalType": "address",
                    "name": "account",
                    "type": "address"
                }
            ],
            "name": "Paused",
            "type": "event"
        },
        {
            "anonymous": false,
            "inputs": [
                {
                    "indexed": true,
                    "internalType": "address",
                    "name": "from",
                    "type": "address"
                },
                {
                    "indexed": true,
                    "internalType": "address",
                    "name": "to",
                    "type": "address"
                },
                {
                    "indexed": true,
                    "internalType": "uint256",
                    "name": "tokenId",
                    "type": "uint256"
                }
            ],
            "name": "Transfer",
            "type": "event"
        },
        {
            "anonymous": false,
            "inputs": [
                {
                    "indexed": false,
                    "internalType": "address",
                    "name": "account",
                    "type": "address"
                }
            ],
            "name": "Unpaused",
            "type": "event"
        },
        {
            "inputs": [
                {
                    "internalType": "address",
                    "name": "to",
                    "type": "address"
                },
                {
                    "internalType": "uint256",
                    "name": "tokenId",
                    "type": "uint256"
                }
            ],
            "name": "approve",
            "outputs": [],
            "stateMutability": "nonpayable",
            "type": "function"
        },
        {
            "inputs": [
                {
                    "internalType": "address",
                    "name": "owner",
                    "type": "address"
                }
            ],
            "name": "balanceOf",
            "outputs": [
                {
                    "internalType": "uint256",
                    "name": "",
                    "type": "uint256"
                }
            ],
            "stateMutability": "view",
            "type": "function"
        },
        {
            "inputs": [
                {
                    "internalType": "uint256",
                    "name": "tokenId",
                    "type": "uint256"
                }
            ],
            "name": "burn",
            "outputs": [],
            "stateMutability": "nonpayable",
            "type": "function"
        },
        {
            "inputs": [
                {
                    "internalType": "uint256",
                    "name": "tokenId",
                    "type": "uint256"
                }
            ],
            "name": "getApproved",
            "outputs": [
                {
                    "internalType": "address",
                    "name": "",
                    "type": "address"
                }
            ],
            "stateMutability": "view",
            "type": "function"
        },
        {
            "inputs": [
                {
                    "internalType": "address",
                    "name": "account",
                    "type": "address"
                }
            ],
            "name": "getCountByAccout",
            "outputs": [
                {
                    "internalType": "uint256",
                    "name": "",
                    "type": "uint256"
                }
            ],
            "stateMutability": "view",
            "type": "function"
        },
        {
            "inputs": [
                {
                    "internalType": "address",
                    "name": "owner",
                    "type": "address"
                },
                {
                    "internalType": "address",
                    "name": "operator",
                    "type": "address"
                }
            ],
            "name": "isApprovedForAll",
            "outputs": [
                {
                    "internalType": "bool",
                    "name": "",
                    "type": "bool"
                }
            ],
            "stateMutability": "view",
            "type": "function"
        },
        {
            "inputs": [],
            "name": "maxPerWallet",
            "outputs": [
                {
                    "internalType": "uint256",
                    "name": "",
                    "type": "uint256"
                }
            ],
            "stateMutability": "view",
            "type": "function"
        },
        {
            "inputs": [],
            "name": "maxSupply",
            "outputs": [
                {
                    "internalType": "uint256",
                    "name": "",
                    "type": "uint256"
                }
            ],
            "stateMutability": "view",
            "type": "function"
        },
        {
            "inputs": [
                {
                    "internalType": "uint256",
                    "name": "_quantity",
                    "type": "uint256"
                }
            ],
            "name": "mint",
            "outputs": [],
            "stateMutability": "payable",
            "type": "function"
        },
        {
            "inputs": [],
            "name": "mintPrice",
            "outputs": [
                {
                    "internalType": "uint256",
                    "name": "",
                    "type": "uint256"
                }
            ],
            "stateMutability": "view",
            "type": "function"
        },
        {
            "inputs": [],
            "name": "name",
            "outputs": [
                {
                    "internalType": "string",
                    "name": "",
                    "type": "string"
                }
            ],
            "stateMutability": "view",
            "type": "function"
        },
        {
            "inputs": [],
            "name": "owner",
            "outputs": [
                {
                    "internalType": "address",
                    "name": "",
                    "type": "address"
                }
            ],
            "stateMutability": "view",
            "type": "function"
        },
        {
            "inputs": [
                {
                    "internalType": "uint256",
                    "name": "tokenId",
                    "type": "uint256"
                }
            ],
            "name": "ownerOf",
            "outputs": [
                {
                    "internalType": "address",
                    "name": "",
                    "type": "address"
                }
            ],
            "stateMutability": "view",
            "type": "function"
        },
        {
            "inputs": [],
            "name": "pause",
            "outputs": [],
            "stateMutability": "nonpayable",
            "type": "function"
        },
        {
            "inputs": [],
            "name": "paused",
            "outputs": [
                {
                    "internalType": "bool",
                    "name": "",
                    "type": "bool"
                }
            ],
            "stateMutability": "view",
            "type": "function"
        },
        {
            "inputs": [],
            "name": "renounceOwnership",
            "outputs": [],
            "stateMutability": "nonpayable",
            "type": "function"
        },
        {
            "inputs": [
                {
                    "internalType": "address",
                    "name": "from",
                    "type": "address"
                },
                {
                    "internalType": "address",
                    "name": "to",
                    "type": "address"
                },
                {
                    "internalType": "uint256",
                    "name": "tokenId",
                    "type": "uint256"
                }
            ],
            "name": "safeTransferFrom",
            "outputs": [],
            "stateMutability": "nonpayable",
            "type": "function"
        },
        {
            "inputs": [
                {
                    "internalType": "address",
                    "name": "from",
                    "type": "address"
                },
                {
                    "internalType": "address",
                    "name": "to",
                    "type": "address"
                },
                {
                    "internalType": "uint256",
                    "name": "tokenId",
                    "type": "uint256"
                },
                {
                    "internalType": "bytes",
                    "name": "_data",
                    "type": "bytes"
                }
            ],
            "name": "safeTransferFrom",
            "outputs": [],
            "stateMutability": "nonpayable",
            "type": "function"
        },
        {
            "inputs": [
                {
                    "internalType": "address",
                    "name": "operator",
                    "type": "address"
                },
                {
                    "internalType": "bool",
                    "name": "approved",
                    "type": "bool"
                }
            ],
            "name": "setApprovalForAll",
            "outputs": [],
            "stateMutability": "nonpayable",
            "type": "function"
        },
        {
            "inputs": [
                {
                    "internalType": "string",
                    "name": "_baseTokenUri",
                    "type": "string"
                }
            ],
            "name": "setBaseTokenUri",
            "outputs": [],
            "stateMutability": "nonpayable",
            "type": "function"
        },
        {
            "inputs": [
                {
                    "internalType": "bytes4",
                    "name": "interfaceId",
                    "type": "bytes4"
                }
            ],
            "name": "supportsInterface",
            "outputs": [
                {
                    "internalType": "bool",
                    "name": "",
                    "type": "bool"
                }
            ],
            "stateMutability": "view",
            "type": "function"
        },
        {
            "inputs": [],
            "name": "symbol",
            "outputs": [
                {
                    "internalType": "string",
                    "name": "",
                    "type": "string"
                }
            ],
            "stateMutability": "view",
            "type": "function"
        },
        {
            "inputs": [
                {
                    "internalType": "uint256",
                    "name": "tokenId_",
                    "type": "uint256"
                }
            ],
            "name": "tokenURI",
            "outputs": [
                {
                    "internalType": "string",
                    "name": "",
                    "type": "string"
                }
            ],
            "stateMutability": "view",
            "type": "function"
        },
        {
            "inputs": [],
            "name": "totalSupply",
            "outputs": [
                {
                    "internalType": "uint256",
                    "name": "",
                    "type": "uint256"
                }
            ],
            "stateMutability": "view",
            "type": "function"
        },
        {
            "inputs": [
                {
                    "internalType": "address",
                    "name": "from",
                    "type": "address"
                },
                {
                    "internalType": "address",
                    "name": "to",
                    "type": "address"
                },
                {
                    "internalType": "uint256",
                    "name": "tokenId",
                    "type": "uint256"
                }
            ],
            "name": "transferFrom",
            "outputs": [],
            "stateMutability": "nonpayable",
            "type": "function"
        },
        {
            "inputs": [
                {
                    "internalType": "address",
                    "name": "newOwner",
                    "type": "address"
                }
            ],
            "name": "transferOwnership",
            "outputs": [],
            "stateMutability": "nonpayable",
            "type": "function"
        },
        {
            "inputs": [],
            "name": "unpause",
            "outputs": [],
            "stateMutability": "nonpayable",
            "type": "function"
        },
        {
            "inputs": [
                {
                    "internalType": "address",
                    "name": "",
                    "type": "address"
                }
            ],
            "name": "walletMints",
            "outputs": [
                {
                    "internalType": "uint256",
                    "name": "",
                    "type": "uint256"
                }
            ],
            "stateMutability": "view",
            "type": "function"
        },
        {
            "inputs": [],
            "name": "withdraw",
            "outputs": [],
            "stateMutability": "nonpayable",
            "type": "function"
        },
        {
            "inputs": [],
            "name": "withdrawWallet",
            "outputs": [
                {
                    "internalType": "address payable",
                    "name": "",
                    "type": "address"
                }
            ],
            "stateMutability": "view",
            "type": "function"
        }
    ],
    "bytecode": "0x60806040526040518060400160405280600681526020017f526f626f747300000000000000000000000000000000000000000000000000008152506040518060400160405280600381526020017f5242540000000000000000000000000000000000000000000000000000000000815250816000908051906020019062000088929190620001da565b508060019080519060200190620000a1929190620001da565b505050620000c4620000b86200010c60201b60201c565b6200011460201b60201c565b6000600660146101000a81548160ff02191690831515021790555066470de4df82000060078190555060006008819055506103e86009819055506003600a81905550620002ef565b600033905090565b6000600660009054906101000a900473ffffffffffffffffffffffffffffffffffffffff16905081600660006101000a81548173ffffffffffffffffffffffffffffffffffffffff021916908373ffffffffffffffffffffffffffffffffffffffff1602179055508173ffffffffffffffffffffffffffffffffffffffff168173ffffffffffffffffffffffffffffffffffffffff167f8be0079c531659141344cd1fd0a4f28419497f9722a3daafe3b4186f6b6457e060405160405180910390a35050565b828054620001e8906200028a565b90600052602060002090601f0160209004810192826200020c576000855562000258565b82601f106200022757805160ff191683800117855562000258565b8280016001018555821562000258579182015b82811115620002575782518255916020019190600101906200023a565b5b5090506200026791906200026b565b5090565b5b80821115620002865760008160009055506001016200026c565b5090565b60006002820490506001821680620002a357607f821691505b60208210811415620002ba57620002b9620002c0565b5b50919050565b7f4e487b7100000000000000000000000000000000000000000000000000000000600052602260045260246000fd5b613d8d80620002ff6000396000f3fe6080604052600436106101cd5760003560e01c806370a08231116100f7578063a0712d6811610095578063d5abeb0111610064578063d5abeb011461062f578063e985e9c51461065a578063f0293fd314610697578063f2fde38b146106d4576101cd565b8063a0712d6814610584578063a22cb465146105a0578063b88d4fde146105c9578063c87b56dd146105f2576101cd565b806385d178f4116100d157806385d178f4146104da5780638da5cb5b1461050557806395652cfa1461053057806395d89b4114610559576101cd565b806370a082311461046f578063715018a6146104ac5780638456cb59146104c3576101cd565b80633f4ba83a1161016f57806359b6159a1161013e57806359b6159a1461039f5780635c975abb146103dc5780636352211e146104075780636817c76c14610444576101cd565b80633f4ba83a1461030b57806342842e0e1461032257806342966c681461034b578063453c231014610374576101cd565b8063095ea7b3116101ab578063095ea7b31461027757806318160ddd146102a057806323b872dd146102cb5780633ccfd60b146102f4576101cd565b806301ffc9a7146101d257806306fdde031461020f578063081812fc1461023a575b600080fd5b3480156101de57600080fd5b506101f960048036038101906101f4919061296b565b6106fd565b6040516102069190612fba565b60405180910390f35b34801561021b57600080fd5b506102246107df565b6040516102319190612fd5565b60405180910390f35b34801561024657600080fd5b50610261600480360381019061025c9190612a02565b610871565b60405161026e9190612f38565b60405180910390f35b34801561028357600080fd5b5061029e6004803603810190610299919061292f565b6108f6565b005b3480156102ac57600080fd5b506102b5610a0e565b6040516102c291906132d7565b60405180910390f35b3480156102d757600080fd5b506102f260048036038101906102ed9190612829565b610a14565b005b34801561030057600080fd5b50610309610a74565b005b34801561031757600080fd5b50610320610bc1565b005b34801561032e57600080fd5b5061034960048036038101906103449190612829565b610c47565b005b34801561035757600080fd5b50610372600480360381019061036d9190612a02565b610c67565b005b34801561038057600080fd5b50610389610cc3565b60405161039691906132d7565b60405180910390f35b3480156103ab57600080fd5b506103c660048036038101906103c191906127c4565b610cc9565b6040516103d391906132d7565b60405180910390f35b3480156103e857600080fd5b506103f1610d8e565b6040516103fe9190612fba565b60405180910390f35b34801561041357600080fd5b5061042e60048036038101906104299190612a02565b610da5565b60405161043b9190612f38565b60405180910390f35b34801561045057600080fd5b50610459610e57565b60405161046691906132d7565b60405180910390f35b34801561047b57600080fd5b50610496600480360381019061049191906127c4565b610e5d565b6040516104a391906132d7565b60405180910390f35b3480156104b857600080fd5b506104c1610f15565b005b3480156104cf57600080fd5b506104d8610f9d565b005b3480156104e657600080fd5b506104ef611023565b6040516104fc9190612f53565b60405180910390f35b34801561051157600080fd5b5061051a611049565b6040516105279190612f38565b60405180910390f35b34801561053c57600080fd5b50610557600480360381019061055291906129bd565b611073565b005b34801561056557600080fd5b5061056e611105565b60405161057b9190612fd5565b60405180910390f35b61059e60048036038101906105999190612a02565b611197565b005b3480156105ac57600080fd5b506105c760048036038101906105c291906128f3565b611373565b005b3480156105d557600080fd5b506105f060048036038101906105eb9190612878565b611389565b005b3480156105fe57600080fd5b5061061960048036038101906106149190612a02565b6113eb565b6040516106269190612fd5565b60405180910390f35b34801561063b57600080fd5b50610644611467565b60405161065191906132d7565b60405180910390f35b34801561066657600080fd5b50610681600480360381019061067c91906127ed565b61146d565b60405161068e9190612fba565b60405180910390f35b3480156106a357600080fd5b506106be60048036038101906106b991906127c4565b611501565b6040516106cb91906132d7565b60405180910390f35b3480156106e057600080fd5b506106fb60048036038101906106f691906127c4565b611519565b005b60007f80ac58cd000000000000000000000000000000000000000000000000000000007bffffffffffffffffffffffffffffffffffffffffffffffffffffffff1916827bffffffffffffffffffffffffffffffffffffffffffffffffffffffff191614806107c857507f5b5e139f000000000000000000000000000000000000000000000000000000007bffffffffffffffffffffffffffffffffffffffffffffffffffffffff1916827bffffffffffffffffffffffffffffffffffffffffffffffffffffffff1916145b806107d857506107d782611611565b5b9050919050565b6060600080546107ee90613588565b80601f016020809104026020016040519081016040528092919081815260200182805461081a90613588565b80156108675780601f1061083c57610100808354040283529160200191610867565b820191906000526020600020905b81548152906001019060200180831161084a57829003601f168201915b5050505050905090565b600061087c8261167b565b6108bb576040517f08c379a00000000000000000000000000000000000000000000000000000000081526004016108b2906131f7565b60405180910390fd5b6004600083815260200190815260200160002060009054906101000a900473ffffffffffffffffffffffffffffffffffffffff169050919050565b600061090182610da5565b90508073ffffffffffffffffffffffffffffffffffffffff168373ffffffffffffffffffffffffffffffffffffffff161415610972576040517f08c379a000000000000000000000000000000000000000000000000000000000815260040161096990613237565b60405180910390fd5b8073ffffffffffffffffffffffffffffffffffffffff166109916116e7565b73ffffffffffffffffffffffffffffffffffffffff1614806109c057506109bf816109ba6116e7565b61146d565b5b6109ff576040517f08c379a00000000000000000000000000000000000000000000000000000000081526004016109f690613177565b60405180910390fd5b610a0983836116ef565b505050565b60085481565b610a25610a1f6116e7565b826117a8565b610a64576040517f08c379a0000000000000000000000000000000000000000000000000000000008152600401610a5b90613257565b60405180910390fd5b610a6f838383611886565b505050565b610a7c6116e7565b73ffffffffffffffffffffffffffffffffffffffff16610a9a611049565b73ffffffffffffffffffffffffffffffffffffffff1614610af0576040517f08c379a0000000000000000000000000000000000000000000000000000000008152600401610ae790613217565b60405180910390fd5b6000600b60009054906101000a900473ffffffffffffffffffffffffffffffffffffffff1673ffffffffffffffffffffffffffffffffffffffff1647604051610b3890612f23565b60006040518083038185875af1925050503d8060008114610b75576040519150601f19603f3d011682016040523d82523d6000602084013e610b7a565b606091505b5050905080610bbe576040517f08c379a0000000000000000000000000000000000000000000000000000000008152600401610bb5906132b7565b60405180910390fd5b50565b610bc96116e7565b73ffffffffffffffffffffffffffffffffffffffff16610be7611049565b73ffffffffffffffffffffffffffffffffffffffff1614610c3d576040517f08c379a0000000000000000000000000000000000000000000000000000000008152600401610c3490613217565b60405180910390fd5b610c45611aed565b565b610c6283838360405180602001604052806000815250611389565b505050565b610c78610c726116e7565b826117a8565b610cb7576040517f08c379a0000000000000000000000000000000000000000000000000000000008152600401610cae90613297565b60405180910390fd5b610cc081611b8f565b50565b600a5481565b6000610cd36116e7565b73ffffffffffffffffffffffffffffffffffffffff16610cf1611049565b73ffffffffffffffffffffffffffffffffffffffff1614610d47576040517f08c379a0000000000000000000000000000000000000000000000000000000008152600401610d3e90613217565b60405180910390fd5b600c60008373ffffffffffffffffffffffffffffffffffffffff1673ffffffffffffffffffffffffffffffffffffffff168152602001908152602001600020549050919050565b6000600660149054906101000a900460ff16905090565b6000806002600084815260200190815260200160002060009054906101000a900473ffffffffffffffffffffffffffffffffffffffff169050600073ffffffffffffffffffffffffffffffffffffffff168173ffffffffffffffffffffffffffffffffffffffff161415610e4e576040517f08c379a0000000000000000000000000000000000000000000000000000000008152600401610e45906131b7565b60405180910390fd5b80915050919050565b60075481565b60008073ffffffffffffffffffffffffffffffffffffffff168273ffffffffffffffffffffffffffffffffffffffff161415610ece576040517f08c379a0000000000000000000000000000000000000000000000000000000008152600401610ec590613197565b60405180910390fd5b600360008373ffffffffffffffffffffffffffffffffffffffff1673ffffffffffffffffffffffffffffffffffffffff168152602001908152602001600020549050919050565b610f1d6116e7565b73ffffffffffffffffffffffffffffffffffffffff16610f3b611049565b73ffffffffffffffffffffffffffffffffffffffff1614610f91576040517f08c379a0000000000000000000000000000000000000000000000000000000008152600401610f8890613217565b60405180910390fd5b610f9b6000611b9b565b565b610fa56116e7565b73ffffffffffffffffffffffffffffffffffffffff16610fc3611049565b73ffffffffffffffffffffffffffffffffffffffff1614611019576040517f08c379a000000000000000000000000000000000000000000000000000000000815260040161101090613217565b60405180910390fd5b611021611c61565b565b600b60009054906101000a900473ffffffffffffffffffffffffffffffffffffffff1681565b6000600660009054906101000a900473ffffffffffffffffffffffffffffffffffffffff16905090565b61107b6116e7565b73ffffffffffffffffffffffffffffffffffffffff16611099611049565b73ffffffffffffffffffffffffffffffffffffffff16146110ef576040517f08c379a00000000000000000000000000000000000000000000000000000000081526004016110e690613217565b60405180910390fd5b8181600d9190611100929190612606565b505050565b60606001805461111490613588565b80601f016020809104026020016040519081016040528092919081815260200182805461114090613588565b801561118d5780601f106111625761010080835404028352916020019161118d565b820191906000526020600020905b81548152906001019060200180831161117057829003601f168201915b5050505050905090565b600754816111a59190613432565b34146111e6576040517f08c379a00000000000000000000000000000000000000000000000000000000081526004016111dd90612ff7565b60405180910390fd5b600954816008546111f791906133ab565b1115611238576040517f08c379a000000000000000000000000000000000000000000000000000000000815260040161122f90613057565b60405180910390fd5b600a5481600c60003373ffffffffffffffffffffffffffffffffffffffff1673ffffffffffffffffffffffffffffffffffffffff1681526020019081526020016000205461128691906133ab565b106112c6576040517f08c379a00000000000000000000000000000000000000000000000000000000081526004016112bd90613117565b60405180910390fd5b60005b8181101561136f57600060016008546112e291906133ab565b9050600860008154809291906112f7906135eb565b91905055506113063382611d04565b600c60003373ffffffffffffffffffffffffffffffffffffffff1673ffffffffffffffffffffffffffffffffffffffff1681526020019081526020016000206000815480929190611356906135eb565b9190505550508080611367906135eb565b9150506112c9565b5050565b61138561137e6116e7565b8383611d22565b5050565b61139a6113946116e7565b836117a8565b6113d9576040517f08c379a00000000000000000000000000000000000000000000000000000000081526004016113d090613257565b60405180910390fd5b6113e584848484611e8f565b50505050565b60606113f68261167b565b611435576040517f08c379a000000000000000000000000000000000000000000000000000000000815260040161142c90613277565b60405180910390fd5b600d61144083611eeb565b604051602001611451929190612ef4565b6040516020818303038152906040529050919050565b60095481565b6000600560008473ffffffffffffffffffffffffffffffffffffffff1673ffffffffffffffffffffffffffffffffffffffff16815260200190815260200160002060008373ffffffffffffffffffffffffffffffffffffffff1673ffffffffffffffffffffffffffffffffffffffff16815260200190815260200160002060009054906101000a900460ff16905092915050565b600c6020528060005260406000206000915090505481565b6115216116e7565b73ffffffffffffffffffffffffffffffffffffffff1661153f611049565b73ffffffffffffffffffffffffffffffffffffffff1614611595576040517f08c379a000000000000000000000000000000000000000000000000000000000815260040161158c90613217565b60405180910390fd5b600073ffffffffffffffffffffffffffffffffffffffff168173ffffffffffffffffffffffffffffffffffffffff161415611605576040517f08c379a00000000000000000000000000000000000000000000000000000000081526004016115fc90613077565b60405180910390fd5b61160e81611b9b565b50565b60007f01ffc9a7000000000000000000000000000000000000000000000000000000007bffffffffffffffffffffffffffffffffffffffffffffffffffffffff1916827bffffffffffffffffffffffffffffffffffffffffffffffffffffffff1916149050919050565b60008073ffffffffffffffffffffffffffffffffffffffff166002600084815260200190815260200160002060009054906101000a900473ffffffffffffffffffffffffffffffffffffffff1673ffffffffffffffffffffffffffffffffffffffff1614159050919050565b600033905090565b816004600083815260200190815260200160002060006101000a81548173ffffffffffffffffffffffffffffffffffffffff021916908373ffffffffffffffffffffffffffffffffffffffff160217905550808273ffffffffffffffffffffffffffffffffffffffff1661176283610da5565b73ffffffffffffffffffffffffffffffffffffffff167f8c5be1e5ebec7d5bd14f71427d1e84f3dd0314c0f7b2291e5b200ac8c7c3b92560405160405180910390a45050565b60006117b38261167b565b6117f2576040517f08c379a00000000000000000000000000000000000000000000000000000000081526004016117e990613137565b60405180910390fd5b60006117fd83610da5565b90508073ffffffffffffffffffffffffffffffffffffffff168473ffffffffffffffffffffffffffffffffffffffff16148061183f575061183e818561146d565b5b8061187d57508373ffffffffffffffffffffffffffffffffffffffff1661186584610871565b73ffffffffffffffffffffffffffffffffffffffff16145b91505092915050565b8273ffffffffffffffffffffffffffffffffffffffff166118a682610da5565b73ffffffffffffffffffffffffffffffffffffffff16146118fc576040517f08c379a00000000000000000000000000000000000000000000000000000000081526004016118f390613097565b60405180910390fd5b600073ffffffffffffffffffffffffffffffffffffffff168273ffffffffffffffffffffffffffffffffffffffff16141561196c576040517f08c379a0000000000000000000000000000000000000000000000000000000008152600401611963906130d7565b60405180910390fd5b611977838383612098565b6119826000826116ef565b6001600360008573ffffffffffffffffffffffffffffffffffffffff1673ffffffffffffffffffffffffffffffffffffffff16815260200190815260200160002060008282546119d2919061348c565b925050819055506001600360008473ffffffffffffffffffffffffffffffffffffffff1673ffffffffffffffffffffffffffffffffffffffff1681526020019081526020016000206000828254611a2991906133ab565b92505081905550816002600083815260200190815260200160002060006101000a81548173ffffffffffffffffffffffffffffffffffffffff021916908373ffffffffffffffffffffffffffffffffffffffff160217905550808273ffffffffffffffffffffffffffffffffffffffff168473ffffffffffffffffffffffffffffffffffffffff167fddf252ad1be2c89b69c2b068fc378daa952ba7f163c4a11628f55a4df523b3ef60405160405180910390a4611ae88383836120f0565b505050565b611af5610d8e565b611b34576040517f08c379a0000000000000000000000000000000000000000000000000000000008152600401611b2b90613017565b60405180910390fd5b6000600660146101000a81548160ff0219169083151502179055507f5db9ee0a495bf2e6ff9c91a7834c1ba4fdd244a5e8aa4e537bd38aeae4b073aa611b786116e7565b604051611b859190612f38565b60405180910390a1565b611b98816120f5565b50565b6000600660009054906101000a900473ffffffffffffffffffffffffffffffffffffffff16905081600660006101000a81548173ffffffffffffffffffffffffffffffffffffffff021916908373ffffffffffffffffffffffffffffffffffffffff1602179055508173ffffffffffffffffffffffffffffffffffffffff168173ffffffffffffffffffffffffffffffffffffffff167f8be0079c531659141344cd1fd0a4f28419497f9722a3daafe3b4186f6b6457e060405160405180910390a35050565b611c69610d8e565b15611ca9576040517f08c379a0000000000000000000000000000000000000000000000000000000008152600401611ca090613157565b60405180910390fd5b6001600660146101000a81548160ff0219169083151502179055507f62e78cea01bee320cd4e420270b5ea74000d11b0c9f74754ebdbfc544b05a258611ced6116e7565b604051611cfa9190612f38565b60405180910390a1565b611d1e828260405180602001604052806000815250612212565b5050565b8173ffffffffffffffffffffffffffffffffffffffff168373ffffffffffffffffffffffffffffffffffffffff161415611d91576040517f08c379a0000000000000000000000000000000000000000000000000000000008152600401611d88906130f7565b60405180910390fd5b80600560008573ffffffffffffffffffffffffffffffffffffffff1673ffffffffffffffffffffffffffffffffffffffff16815260200190815260200160002060008473ffffffffffffffffffffffffffffffffffffffff1673ffffffffffffffffffffffffffffffffffffffff16815260200190815260200160002060006101000a81548160ff0219169083151502179055508173ffffffffffffffffffffffffffffffffffffffff168373ffffffffffffffffffffffffffffffffffffffff167f17307eab39ab6107e8899845ad3d59bd9653f200f220920489ca2b5937696c3183604051611e829190612fba565b60405180910390a3505050565b611e9a848484611886565b611ea68484848461226d565b611ee5576040517f08c379a0000000000000000000000000000000000000000000000000000000008152600401611edc90613037565b60405180910390fd5b50505050565b60606000821415611f33576040518060400160405280600181526020017f30000000000000000000000000000000000000000000000000000000000000008152509050612093565b600082905060005b60008214611f65578080611f4e906135eb565b915050600a82611f5e9190613401565b9150611f3b565b60008167ffffffffffffffff811115611fa7577f4e487b7100000000000000000000000000000000000000000000000000000000600052604160045260246000fd5b6040519080825280601f01601f191660200182016040528015611fd95781602001600182028036833780820191505090505b5090505b6000851461208c57600182611ff2919061348c565b9150600a856120019190613634565b603061200d91906133ab565b60f81b818381518110612049577f4e487b7100000000000000000000000000000000000000000000000000000000600052603260045260246000fd5b60200101907effffffffffffffffffffffffffffffffffffffffffffffffffffffffffffff1916908160001a905350600a856120859190613401565b9450611fdd565b8093505050505b919050565b6120a0610d8e565b156120e0576040517f08c379a00000000000000000000000000000000000000000000000000000000081526004016120d790613157565b60405180910390fd5b6120eb838383612404565b505050565b505050565b600061210082610da5565b905061210e81600084612098565b6121196000836116ef565b6001600360008373ffffffffffffffffffffffffffffffffffffffff1673ffffffffffffffffffffffffffffffffffffffff1681526020019081526020016000206000828254612169919061348c565b925050819055506002600083815260200190815260200160002060006101000a81549073ffffffffffffffffffffffffffffffffffffffff021916905581600073ffffffffffffffffffffffffffffffffffffffff168273ffffffffffffffffffffffffffffffffffffffff167fddf252ad1be2c89b69c2b068fc378daa952ba7f163c4a11628f55a4df523b3ef60405160405180910390a461220e816000846120f0565b5050565b61221c8383612409565b612229600084848461226d565b612268576040517f08c379a000000000000000000000000000000000000000000000000000000000815260040161225f90613037565b60405180910390fd5b505050565b600061228e8473ffffffffffffffffffffffffffffffffffffffff166125e3565b156123f7578373ffffffffffffffffffffffffffffffffffffffff1663150b7a026122b76116e7565b8786866040518563ffffffff1660e01b81526004016122d99493929190612f6e565b602060405180830381600087803b1580156122f357600080fd5b505af192505050801561232457506040513d601f19601f820116820180604052508101906123219190612994565b60015b6123a7573d8060008114612354576040519150601f19603f3d011682016040523d82523d6000602084013e612359565b606091505b5060008151141561239f576040517f08c379a000000000000000000000000000000000000000000000000000000000815260040161239690613037565b60405180910390fd5b805181602001fd5b63150b7a0260e01b7bffffffffffffffffffffffffffffffffffffffffffffffffffffffff1916817bffffffffffffffffffffffffffffffffffffffffffffffffffffffff1916149150506123fc565b600190505b949350505050565b505050565b600073ffffffffffffffffffffffffffffffffffffffff168273ffffffffffffffffffffffffffffffffffffffff161415612479576040517f08c379a0000000000000000000000000000000000000000000000000000000008152600401612470906131d7565b60405180910390fd5b6124828161167b565b156124c2576040517f08c379a00000000000000000000000000000000000000000000000000000000081526004016124b9906130b7565b60405180910390fd5b6124ce60008383612098565b6001600360008473ffffffffffffffffffffffffffffffffffffffff1673ffffffffffffffffffffffffffffffffffffffff168152602001908152602001600020600082825461251e91906133ab565b92505081905550816002600083815260200190815260200160002060006101000a81548173ffffffffffffffffffffffffffffffffffffffff021916908373ffffffffffffffffffffffffffffffffffffffff160217905550808273ffffffffffffffffffffffffffffffffffffffff16600073ffffffffffffffffffffffffffffffffffffffff167fddf252ad1be2c89b69c2b068fc378daa952ba7f163c4a11628f55a4df523b3ef60405160405180910390a46125df600083836120f0565b5050565b6000808273ffffffffffffffffffffffffffffffffffffffff163b119050919050565b82805461261290613588565b90600052602060002090601f016020900481019282612634576000855561267b565b82601f1061264d57803560ff191683800117855561267b565b8280016001018555821561267b579182015b8281111561267a57823582559160200191906001019061265f565b5b509050612688919061268c565b5090565b5b808211156126a557600081600090555060010161268d565b5090565b60006126bc6126b784613317565b6132f2565b9050828152602081018484840111156126d457600080fd5b6126df848285613546565b509392505050565b6000813590506126f681613cfb565b92915050565b60008135905061270b81613d12565b92915050565b60008135905061272081613d29565b92915050565b60008151905061273581613d29565b92915050565b600082601f83011261274c57600080fd5b813561275c8482602086016126a9565b91505092915050565b60008083601f84011261277757600080fd5b8235905067ffffffffffffffff81111561279057600080fd5b6020830191508360018202830111156127a857600080fd5b9250929050565b6000813590506127be81613d40565b92915050565b6000602082840312156127d657600080fd5b60006127e4848285016126e7565b91505092915050565b6000806040838503121561280057600080fd5b600061280e858286016126e7565b925050602061281f858286016126e7565b9150509250929050565b60008060006060848603121561283e57600080fd5b600061284c868287016126e7565b935050602061285d868287016126e7565b925050604061286e868287016127af565b9150509250925092565b6000806000806080858703121561288e57600080fd5b600061289c878288016126e7565b94505060206128ad878288016126e7565b93505060406128be878288016127af565b925050606085013567ffffffffffffffff8111156128db57600080fd5b6128e78782880161273b565b91505092959194509250565b6000806040838503121561290657600080fd5b6000612914858286016126e7565b9250506020612925858286016126fc565b9150509250929050565b6000806040838503121561294257600080fd5b6000612950858286016126e7565b9250506020612961858286016127af565b9150509250929050565b60006020828403121561297d57600080fd5b600061298b84828501612711565b91505092915050565b6000602082840312156129a657600080fd5b60006129b484828501612726565b91505092915050565b600080602083850312156129d057600080fd5b600083013567ffffffffffffffff8111156129ea57600080fd5b6129f685828601612765565b92509250509250929050565b600060208284031215612a1457600080fd5b6000612a22848285016127af565b91505092915050565b612a34816134d2565b82525050565b612a43816134c0565b82525050565b612a52816134e4565b82525050565b6000612a638261335d565b612a6d8185613373565b9350612a7d818560208601613555565b612a8681613721565b840191505092915050565b6000612a9c82613368565b612aa6818561338f565b9350612ab6818560208601613555565b612abf81613721565b840191505092915050565b6000612ad582613368565b612adf81856133a0565b9350612aef818560208601613555565b80840191505092915050565b60008154612b0881613588565b612b1281866133a0565b94506001821660008114612b2d5760018114612b3e57612b71565b60ff19831686528186019350612b71565b612b4785613348565b60005b83811015612b6957815481890152600182019150602081019050612b4a565b838801955050505b50505092915050565b6000612b8760108361338f565b9150612b9282613732565b602082019050919050565b6000612baa60148361338f565b9150612bb58261375b565b602082019050919050565b6000612bcd60328361338f565b9150612bd882613784565b604082019050919050565b6000612bf0600b8361338f565b9150612bfb826137d3565b602082019050919050565b6000612c1360268361338f565b9150612c1e826137fc565b604082019050919050565b6000612c3660258361338f565b9150612c418261384b565b604082019050919050565b6000612c59601c8361338f565b9150612c648261389a565b602082019050919050565b6000612c7c60248361338f565b9150612c87826138c3565b604082019050919050565b6000612c9f60198361338f565b9150612caa82613912565b602082019050919050565b6000612cc2601a8361338f565b9150612ccd8261393b565b602082019050919050565b6000612ce5602c8361338f565b9150612cf082613964565b604082019050919050565b6000612d08600183613384565b9150612d13826139b3565b600182019050919050565b6000612d2b60108361338f565b9150612d36826139dc565b602082019050919050565b6000612d4e60388361338f565b9150612d5982613a05565b604082019050919050565b6000612d71602a8361338f565b9150612d7c82613a54565b604082019050919050565b6000612d9460298361338f565b9150612d9f82613aa3565b604082019050919050565b6000612db760208361338f565b9150612dc282613af2565b602082019050919050565b6000612dda602c8361338f565b9150612de582613b1b565b604082019050919050565b6000612dfd6005836133a0565b9150612e0882613b6a565b600582019050919050565b6000612e2060208361338f565b9150612e2b82613b93565b602082019050919050565b6000612e4360218361338f565b9150612e4e82613bbc565b604082019050919050565b6000612e6660318361338f565b9150612e7182613c0b565b604082019050919050565b6000612e8960148361338f565b9150612e9482613c5a565b602082019050919050565b6000612eac60308361338f565b9150612eb782613c83565b604082019050919050565b6000612ecf600f8361338f565b9150612eda82613cd2565b602082019050919050565b612eee8161353c565b82525050565b6000612f008285612afb565b9150612f0c8284612aca565b9150612f1782612df0565b91508190509392505050565b6000612f2e82612cfb565b9150819050919050565b6000602082019050612f4d6000830184612a3a565b92915050565b6000602082019050612f686000830184612a2b565b92915050565b6000608082019050612f836000830187612a3a565b612f906020830186612a3a565b612f9d6040830185612ee5565b8181036060830152612faf8184612a58565b905095945050505050565b6000602082019050612fcf6000830184612a49565b92915050565b60006020820190508181036000830152612fef8184612a91565b905092915050565b6000602082019050818103600083015261301081612b7a565b9050919050565b6000602082019050818103600083015261303081612b9d565b9050919050565b6000602082019050818103600083015261305081612bc0565b9050919050565b6000602082019050818103600083015261307081612be3565b9050919050565b6000602082019050818103600083015261309081612c06565b9050919050565b600060208201905081810360008301526130b081612c29565b9050919050565b600060208201905081810360008301526130d081612c4c565b9050919050565b600060208201905081810360008301526130f081612c6f565b9050919050565b6000602082019050818103600083015261311081612c92565b9050919050565b6000602082019050818103600083015261313081612cb5565b9050919050565b6000602082019050818103600083015261315081612cd8565b9050919050565b6000602082019050818103600083015261317081612d1e565b9050919050565b6000602082019050818103600083015261319081612d41565b9050919050565b600060208201905081810360008301526131b081612d64565b9050919050565b600060208201905081810360008301526131d081612d87565b9050919050565b600060208201905081810360008301526131f081612daa565b9050919050565b6000602082019050818103600083015261321081612dcd565b9050919050565b6000602082019050818103600083015261323081612e13565b9050919050565b6000602082019050818103600083015261325081612e36565b9050919050565b6000602082019050818103600083015261327081612e59565b9050919050565b6000602082019050818103600083015261329081612e7c565b9050919050565b600060208201905081810360008301526132b081612e9f565b9050919050565b600060208201905081810360008301526132d081612ec2565b9050919050565b60006020820190506132ec6000830184612ee5565b92915050565b60006132fc61330d565b905061330882826135ba565b919050565b6000604051905090565b600067ffffffffffffffff821115613332576133316136f2565b5b61333b82613721565b9050602081019050919050565b60008190508160005260206000209050919050565b600081519050919050565b600081519050919050565b600082825260208201905092915050565b600081905092915050565b600082825260208201905092915050565b600081905092915050565b60006133b68261353c565b91506133c18361353c565b9250827fffffffffffffffffffffffffffffffffffffffffffffffffffffffffffffffff038211156133f6576133f5613665565b5b828201905092915050565b600061340c8261353c565b91506134178361353c565b92508261342757613426613694565b5b828204905092915050565b600061343d8261353c565b91506134488361353c565b9250817fffffffffffffffffffffffffffffffffffffffffffffffffffffffffffffffff048311821515161561348157613480613665565b5b828202905092915050565b60006134978261353c565b91506134a28361353c565b9250828210156134b5576134b4613665565b5b828203905092915050565b60006134cb8261351c565b9050919050565b60006134dd8261351c565b9050919050565b60008115159050919050565b60007fffffffff0000000000000000000000000000000000000000000000000000000082169050919050565b600073ffffffffffffffffffffffffffffffffffffffff82169050919050565b6000819050919050565b82818337600083830152505050565b60005b83811015613573578082015181840152602081019050613558565b83811115613582576000848401525b50505050565b600060028204905060018216806135a057607f821691505b602082108114156135b4576135b36136c3565b5b50919050565b6135c382613721565b810181811067ffffffffffffffff821117156135e2576135e16136f2565b5b80604052505050565b60006135f68261353c565b91507fffffffffffffffffffffffffffffffffffffffffffffffffffffffffffffffff82141561362957613628613665565b5b600182019050919050565b600061363f8261353c565b915061364a8361353c565b92508261365a57613659613694565b5b828206905092915050565b7f4e487b7100000000000000000000000000000000000000000000000000000000600052601160045260246000fd5b7f4e487b7100000000000000000000000000000000000000000000000000000000600052601260045260246000fd5b7f4e487b7100000000000000000000000000000000000000000000000000000000600052602260045260246000fd5b7f4e487b7100000000000000000000000000000000000000000000000000000000600052604160045260246000fd5b6000601f19601f8301169050919050565b7f77726f6e67206d696e742076616c756500000000000000000000000000000000600082015250565b7f5061757361626c653a206e6f7420706175736564000000000000000000000000600082015250565b7f4552433732313a207472616e7366657220746f206e6f6e20455243373231526560008201527f63656976657220696d706c656d656e7465720000000000000000000000000000602082015250565b7f4e6f20617274206c656674000000000000000000000000000000000000000000600082015250565b7f4f776e61626c653a206e6577206f776e657220697320746865207a65726f206160008201527f6464726573730000000000000000000000000000000000000000000000000000602082015250565b7f4552433732313a207472616e736665722066726f6d20696e636f72726563742060008201527f6f776e6572000000000000000000000000000000000000000000000000000000602082015250565b7f4552433732313a20746f6b656e20616c7265616479206d696e74656400000000600082015250565b7f4552433732313a207472616e7366657220746f20746865207a65726f2061646460008201527f7265737300000000000000000000000000000000000000000000000000000000602082015250565b7f4552433732313a20617070726f766520746f2063616c6c657200000000000000600082015250565b7f596f752063616e2774206d696e74206d6f726520746f6b656e73000000000000600082015250565b7f4552433732313a206f70657261746f7220717565727920666f72206e6f6e657860008201527f697374656e7420746f6b656e0000000000000000000000000000000000000000602082015250565b7f2000000000000000000000000000000000000000000000000000000000000000600082015250565b7f5061757361626c653a2070617573656400000000000000000000000000000000600082015250565b7f4552433732313a20617070726f76652063616c6c6572206973206e6f74206f7760008201527f6e6572206e6f7220617070726f76656420666f7220616c6c0000000000000000602082015250565b7f4552433732313a2062616c616e636520717565727920666f7220746865207a6560008201527f726f206164647265737300000000000000000000000000000000000000000000602082015250565b7f4552433732313a206f776e657220717565727920666f72206e6f6e657869737460008201527f656e7420746f6b656e0000000000000000000000000000000000000000000000602082015250565b7f4552433732313a206d696e7420746f20746865207a65726f2061646472657373600082015250565b7f4552433732313a20617070726f76656420717565727920666f72206e6f6e657860008201527f697374656e7420746f6b656e0000000000000000000000000000000000000000602082015250565b7f2e6a736f6e000000000000000000000000000000000000000000000000000000600082015250565b7f4f776e61626c653a2063616c6c6572206973206e6f7420746865206f776e6572600082015250565b7f4552433732313a20617070726f76616c20746f2063757272656e74206f776e6560008201527f7200000000000000000000000000000000000000000000000000000000000000602082015250565b7f4552433732313a207472616e736665722063616c6c6572206973206e6f74206f60008201527f776e6572206e6f7220617070726f766564000000000000000000000000000000602082015250565b7f546f6b656e20646f6573206e6f74206578697473000000000000000000000000600082015250565b7f4552433732314275726e61626c653a2063616c6c6572206973206e6f74206f7760008201527f6e6572206e6f7220617070726f76656400000000000000000000000000000000602082015250565b7f7769746864726177206661696c65640000000000000000000000000000000000600082015250565b613d04816134c0565b8114613d0f57600080fd5b50565b613d1b816134e4565b8114613d2657600080fd5b50565b613d32816134f0565b8114613d3d57600080fd5b50565b613d498161353c565b8114613d5457600080fd5b5056fea2646970667358221220340c89b5bafb507130c4c223f29fc5a17292f8ce33aa06019bb80434bd5a0fcc64736f6c63430008040033",
    "linkReferences": {},
    "deployedLinkReferences": {}
}